{
  "contractName": "LixiLotus_NFT",
  "abi": [
    {
      "inputs": [],
      "stateMutability": "nonpayable",
      "type": "constructor"
    },
    {
      "anonymous": false,
      "inputs": [
        {
          "indexed": true,
          "internalType": "address",
          "name": "owner",
          "type": "address"
        },
        {
          "indexed": true,
          "internalType": "address",
          "name": "approved",
          "type": "address"
        },
        {
          "indexed": true,
          "internalType": "uint256",
          "name": "tokenId",
          "type": "uint256"
        }
      ],
      "name": "Approval",
      "type": "event"
    },
    {
      "anonymous": false,
      "inputs": [
        {
          "indexed": true,
          "internalType": "address",
          "name": "owner",
          "type": "address"
        },
        {
          "indexed": true,
          "internalType": "address",
          "name": "operator",
          "type": "address"
        },
        {
          "indexed": false,
          "internalType": "bool",
          "name": "approved",
          "type": "bool"
        }
      ],
      "name": "ApprovalForAll",
      "type": "event"
    },
    {
      "anonymous": false,
      "inputs": [
        {
          "indexed": true,
          "internalType": "address",
          "name": "previousOwner",
          "type": "address"
        },
        {
          "indexed": true,
          "internalType": "address",
          "name": "newOwner",
          "type": "address"
        }
      ],
      "name": "OwnershipTransferred",
      "type": "event"
    },
    {
      "anonymous": false,
      "inputs": [
        {
          "indexed": false,
          "internalType": "address",
          "name": "account",
          "type": "address"
        }
      ],
      "name": "Paused",
      "type": "event"
    },
    {
      "anonymous": false,
      "inputs": [
        {
          "indexed": true,
          "internalType": "address",
          "name": "from",
          "type": "address"
        },
        {
          "indexed": true,
          "internalType": "address",
          "name": "to",
          "type": "address"
        },
        {
          "indexed": true,
          "internalType": "uint256",
          "name": "tokenId",
          "type": "uint256"
        }
      ],
      "name": "Transfer",
      "type": "event"
    },
    {
      "anonymous": false,
      "inputs": [
        {
          "indexed": false,
          "internalType": "address",
          "name": "account",
          "type": "address"
        }
      ],
      "name": "Unpaused",
      "type": "event"
    },
    {
      "inputs": [
        {
          "internalType": "address",
          "name": "to",
          "type": "address"
        },
        {
          "internalType": "uint256",
          "name": "tokenId",
          "type": "uint256"
        }
      ],
      "name": "approve",
      "outputs": [],
      "stateMutability": "nonpayable",
      "type": "function"
    },
    {
      "inputs": [
        {
          "internalType": "address",
          "name": "owner",
          "type": "address"
        }
      ],
      "name": "balanceOf",
      "outputs": [
        {
          "internalType": "uint256",
          "name": "",
          "type": "uint256"
        }
      ],
      "stateMutability": "view",
      "type": "function",
      "constant": true
    },
    {
      "inputs": [
        {
          "internalType": "uint256",
          "name": "tokenId",
          "type": "uint256"
        }
      ],
      "name": "burn",
      "outputs": [],
      "stateMutability": "nonpayable",
      "type": "function"
    },
    {
      "inputs": [
        {
          "internalType": "uint256",
          "name": "tokenId",
          "type": "uint256"
        }
      ],
      "name": "getApproved",
      "outputs": [
        {
          "internalType": "address",
          "name": "",
          "type": "address"
        }
      ],
      "stateMutability": "view",
      "type": "function",
      "constant": true
    },
    {
      "inputs": [
        {
          "internalType": "address",
          "name": "owner",
          "type": "address"
        },
        {
          "internalType": "address",
          "name": "operator",
          "type": "address"
        }
      ],
      "name": "isApprovedForAll",
      "outputs": [
        {
          "internalType": "bool",
          "name": "",
          "type": "bool"
        }
      ],
      "stateMutability": "view",
      "type": "function",
      "constant": true
    },
    {
      "inputs": [],
      "name": "name",
      "outputs": [
        {
          "internalType": "string",
          "name": "",
          "type": "string"
        }
      ],
      "stateMutability": "view",
      "type": "function",
      "constant": true
    },
    {
      "inputs": [],
      "name": "owner",
      "outputs": [
        {
          "internalType": "address",
          "name": "",
          "type": "address"
        }
      ],
      "stateMutability": "view",
      "type": "function",
      "constant": true
    },
    {
      "inputs": [
        {
          "internalType": "uint256",
          "name": "tokenId",
          "type": "uint256"
        }
      ],
      "name": "ownerOf",
      "outputs": [
        {
          "internalType": "address",
          "name": "",
          "type": "address"
        }
      ],
      "stateMutability": "view",
      "type": "function",
      "constant": true
    },
    {
      "inputs": [],
      "name": "paused",
      "outputs": [
        {
          "internalType": "bool",
          "name": "",
          "type": "bool"
        }
      ],
      "stateMutability": "view",
      "type": "function",
      "constant": true
    },
    {
      "inputs": [],
      "name": "renounceOwnership",
      "outputs": [],
      "stateMutability": "nonpayable",
      "type": "function"
    },
    {
      "inputs": [
        {
          "internalType": "address",
          "name": "from",
          "type": "address"
        },
        {
          "internalType": "address",
          "name": "to",
          "type": "address"
        },
        {
          "internalType": "uint256",
          "name": "tokenId",
          "type": "uint256"
        }
      ],
      "name": "safeTransferFrom",
      "outputs": [],
      "stateMutability": "nonpayable",
      "type": "function"
    },
    {
      "inputs": [
        {
          "internalType": "address",
          "name": "from",
          "type": "address"
        },
        {
          "internalType": "address",
          "name": "to",
          "type": "address"
        },
        {
          "internalType": "uint256",
          "name": "tokenId",
          "type": "uint256"
        },
        {
          "internalType": "bytes",
          "name": "_data",
          "type": "bytes"
        }
      ],
      "name": "safeTransferFrom",
      "outputs": [],
      "stateMutability": "nonpayable",
      "type": "function"
    },
    {
      "inputs": [
        {
          "internalType": "address",
          "name": "operator",
          "type": "address"
        },
        {
          "internalType": "bool",
          "name": "approved",
          "type": "bool"
        }
      ],
      "name": "setApprovalForAll",
      "outputs": [],
      "stateMutability": "nonpayable",
      "type": "function"
    },
    {
      "inputs": [],
      "name": "symbol",
      "outputs": [
        {
          "internalType": "string",
          "name": "",
          "type": "string"
        }
      ],
      "stateMutability": "view",
      "type": "function",
      "constant": true
    },
    {
      "inputs": [
        {
          "internalType": "uint256",
          "name": "index",
          "type": "uint256"
        }
      ],
      "name": "tokenByIndex",
      "outputs": [
        {
          "internalType": "uint256",
          "name": "",
          "type": "uint256"
        }
      ],
      "stateMutability": "view",
      "type": "function",
      "constant": true
    },
    {
      "inputs": [
        {
          "internalType": "address",
          "name": "owner",
          "type": "address"
        },
        {
          "internalType": "uint256",
          "name": "index",
          "type": "uint256"
        }
      ],
      "name": "tokenOfOwnerByIndex",
      "outputs": [
        {
          "internalType": "uint256",
          "name": "",
          "type": "uint256"
        }
      ],
      "stateMutability": "view",
      "type": "function",
      "constant": true
    },
    {
      "inputs": [
        {
          "internalType": "uint256",
          "name": "tokenId",
          "type": "uint256"
        }
      ],
      "name": "tokenURI",
      "outputs": [
        {
          "internalType": "string",
          "name": "",
          "type": "string"
        }
      ],
      "stateMutability": "view",
      "type": "function",
      "constant": true
    },
    {
      "inputs": [],
      "name": "totalSupply",
      "outputs": [
        {
          "internalType": "uint256",
          "name": "",
          "type": "uint256"
        }
      ],
      "stateMutability": "view",
      "type": "function",
      "constant": true
    },
    {
      "inputs": [
        {
          "internalType": "address",
          "name": "from",
          "type": "address"
        },
        {
          "internalType": "address",
          "name": "to",
          "type": "address"
        },
        {
          "internalType": "uint256",
          "name": "tokenId",
          "type": "uint256"
        }
      ],
      "name": "transferFrom",
      "outputs": [],
      "stateMutability": "nonpayable",
      "type": "function"
    },
    {
      "inputs": [
        {
          "internalType": "address",
          "name": "newOwner",
          "type": "address"
        }
      ],
      "name": "transferOwnership",
      "outputs": [],
      "stateMutability": "nonpayable",
      "type": "function"
    },
    {
      "inputs": [
        {
          "internalType": "address",
          "name": "",
          "type": "address"
        }
      ],
      "name": "userMintCount",
      "outputs": [
        {
          "internalType": "uint256",
          "name": "",
          "type": "uint256"
        }
      ],
      "stateMutability": "view",
      "type": "function",
      "constant": true
    },
    {
      "inputs": [
        {
          "internalType": "address",
          "name": "receiver",
          "type": "address"
        }
      ],
      "name": "mintNFT",
      "outputs": [
        {
          "internalType": "uint256",
          "name": "",
          "type": "uint256"
        }
      ],
      "stateMutability": "nonpayable",
      "type": "function"
    },
    {
      "inputs": [],
      "name": "pause",
      "outputs": [],
      "stateMutability": "nonpayable",
      "type": "function"
    },
    {
      "inputs": [],
      "name": "unpause",
      "outputs": [],
      "stateMutability": "nonpayable",
      "type": "function"
    },
    {
      "inputs": [],
      "name": "totalMintCount",
      "outputs": [
        {
          "internalType": "uint256",
          "name": "",
          "type": "uint256"
        }
      ],
      "stateMutability": "view",
      "type": "function",
      "constant": true
    },
    {
      "inputs": [
        {
          "internalType": "bytes4",
          "name": "interfaceId",
          "type": "bytes4"
        }
      ],
      "name": "supportsInterface",
      "outputs": [
        {
          "internalType": "bool",
          "name": "",
          "type": "bool"
        }
      ],
      "stateMutability": "view",
      "type": "function",
      "constant": true
    }
  ],
  "bytecode": "0x60806040523480156200001157600080fd5b506040518060400160405280600f81526020017f4c697869204c6f747573204c6f766500000000000000000000000000000000008152506040518060400160405280600381526020017f4c4c4c00000000000000000000000000000000000000000000000000000000008152506200009e620000926200014160201b60201c565b6200014960201b60201c565b8160019080519060200190620000b69291906200020d565b508060029080519060200190620000cf9291906200020d565b5050506000600b60006101000a81548160ff0219169083151502179055506040518060400160405280601781526020017f68747470733a2f2f6c6978696c6f7475732e746573742f000000000000000000815250600c90805190602001906200013a9291906200020d565b5062000322565b600033905090565b60008060009054906101000a900473ffffffffffffffffffffffffffffffffffffffff169050816000806101000a81548173ffffffffffffffffffffffffffffffffffffffff021916908373ffffffffffffffffffffffffffffffffffffffff1602179055508173ffffffffffffffffffffffffffffffffffffffff168173ffffffffffffffffffffffffffffffffffffffff167f8be0079c531659141344cd1fd0a4f28419497f9722a3daafe3b4186f6b6457e060405160405180910390a35050565b8280546200021b90620002bd565b90600052602060002090601f0160209004810192826200023f57600085556200028b565b82601f106200025a57805160ff19168380011785556200028b565b828001600101855582156200028b579182015b828111156200028a5782518255916020019190600101906200026d565b5b5090506200029a91906200029e565b5090565b5b80821115620002b95760008160009055506001016200029f565b5090565b60006002820490506001821680620002d657607f821691505b60208210811415620002ed57620002ec620002f3565b5b50919050565b7f4e487b7100000000000000000000000000000000000000000000000000000000600052602260045260246000fd5b613b2a80620003326000396000f3fe608060405234801561001057600080fd5b506004361061018e5760003560e01c80635c975abb116100de5780638da5cb5b11610097578063b88d4fde11610071578063b88d4fde14610471578063c87b56dd1461048d578063e985e9c5146104bd578063f2fde38b146104ed5761018e565b80638da5cb5b1461041957806395d89b4114610437578063a22cb465146104555761018e565b80635c975abb146103695780636352211e1461038757806370a08231146103b7578063715018a6146103e75780637a0d2302146103f15780638456cb591461040f5761018e565b80632f745c591161014b57806342842e0e1161012557806342842e0e146102d157806342966c68146102ed5780634f6ccce71461030957806354ba0f27146103395761018e565b80632f745c59146102675780633950891f146102975780633f4ba83a146102c75761018e565b806301ffc9a71461019357806306fdde03146101c3578063081812fc146101e1578063095ea7b31461021157806318160ddd1461022d57806323b872dd1461024b575b600080fd5b6101ad60048036038101906101a89190612890565b610509565b6040516101ba9190612d74565b60405180910390f35b6101cb61051b565b6040516101d89190612d8f565b60405180910390f35b6101fb60048036038101906101f691906128ea565b6105ad565b6040516102089190612d0d565b60405180910390f35b61022b60048036038101906102269190612850565b610632565b005b61023561074a565b6040516102429190613071565b60405180910390f35b6102656004803603810190610260919061273a565b610757565b005b610281600480360381019061027c9190612850565b6107b7565b60405161028e9190613071565b60405180910390f35b6102b160048036038101906102ac91906126cd565b61085c565b6040516102be9190613071565b60405180910390f35b6102cf610874565b005b6102eb60048036038101906102e6919061273a565b6108fa565b005b610307600480360381019061030291906128ea565b61091a565b005b610323600480360381019061031e91906128ea565b610976565b6040516103309190613071565b60405180910390f35b610353600480360381019061034e91906126cd565b6109e7565b6040516103609190613071565b60405180910390f35b610371610a90565b60405161037e9190612d74565b60405180910390f35b6103a1600480360381019061039c91906128ea565b610aa7565b6040516103ae9190612d0d565b60405180910390f35b6103d160048036038101906103cc91906126cd565b610b59565b6040516103de9190613071565b60405180910390f35b6103ef610c11565b005b6103f9610c99565b6040516104069190613071565b60405180910390f35b610417610caa565b005b610421610d30565b60405161042e9190612d0d565b60405180910390f35b61043f610d59565b60405161044c9190612d8f565b60405180910390f35b61046f600480360381019061046a9190612810565b610deb565b005b61048b6004803603810190610486919061278d565b610e01565b005b6104a760048036038101906104a291906128ea565b610e63565b6040516104b49190612d8f565b60405180910390f35b6104d760048036038101906104d291906126fa565b610f0a565b6040516104e49190612d74565b60405180910390f35b610507600480360381019061050291906126cd565b610f9e565b005b600061051482611096565b9050919050565b60606001805461052a90613296565b80601f016020809104026020016040519081016040528092919081815260200182805461055690613296565b80156105a35780601f10610578576101008083540402835291602001916105a3565b820191906000526020600020905b81548152906001019060200180831161058657829003601f168201915b5050505050905090565b60006105b882611110565b6105f7576040517f08c379a00000000000000000000000000000000000000000000000000000000081526004016105ee90612f91565b60405180910390fd5b6005600083815260200190815260200160002060009054906101000a900473ffffffffffffffffffffffffffffffffffffffff169050919050565b600061063d82610aa7565b90508073ffffffffffffffffffffffffffffffffffffffff168373ffffffffffffffffffffffffffffffffffffffff1614156106ae576040517f08c379a00000000000000000000000000000000000000000000000000000000081526004016106a590612ff1565b60405180910390fd5b8073ffffffffffffffffffffffffffffffffffffffff166106cd61117c565b73ffffffffffffffffffffffffffffffffffffffff1614806106fc57506106fb816106f661117c565b610f0a565b5b61073b576040517f08c379a000000000000000000000000000000000000000000000000000000000815260040161073290612f11565b60405180910390fd5b6107458383611184565b505050565b6000600980549050905090565b61076861076261117c565b8261123d565b6107a7576040517f08c379a000000000000000000000000000000000000000000000000000000000815260040161079e90613011565b60405180910390fd5b6107b283838361131b565b505050565b60006107c283610b59565b8210610803576040517f08c379a00000000000000000000000000000000000000000000000000000000081526004016107fa90612df1565b60405180910390fd5b600760008473ffffffffffffffffffffffffffffffffffffffff1673ffffffffffffffffffffffffffffffffffffffff168152602001908152602001600020600083815260200190815260200160002054905092915050565b600e6020528060005260406000206000915090505481565b61087c61117c565b73ffffffffffffffffffffffffffffffffffffffff1661089a610d30565b73ffffffffffffffffffffffffffffffffffffffff16146108f0576040517f08c379a00000000000000000000000000000000000000000000000000000000081526004016108e790612fb1565b60405180910390fd5b6108f8611582565b565b61091583838360405180602001604052806000815250610e01565b505050565b61092b61092561117c565b8261123d565b61096a576040517f08c379a000000000000000000000000000000000000000000000000000000000815260040161096190613051565b60405180910390fd5b61097381611624565b50565b600061098061074a565b82106109c1576040517f08c379a00000000000000000000000000000000000000000000000000000000081526004016109b890613031565b60405180910390fd5b600982815481106109d5576109d461342f565b5b90600052602060002001549050919050565b60006109f161117c565b73ffffffffffffffffffffffffffffffffffffffff16610a0f610d30565b73ffffffffffffffffffffffffffffffffffffffff1614610a65576040517f08c379a0000000000000000000000000000000000000000000000000000000008152600401610a5c90612fb1565b60405180910390fd5b610a6f600d611741565b6000610a7b600d611757565b9050610a878382611765565b80915050919050565b6000600b60009054906101000a900460ff16905090565b6000806003600084815260200190815260200160002060009054906101000a900473ffffffffffffffffffffffffffffffffffffffff169050600073ffffffffffffffffffffffffffffffffffffffff168173ffffffffffffffffffffffffffffffffffffffff161415610b50576040517f08c379a0000000000000000000000000000000000000000000000000000000008152600401610b4790612f51565b60405180910390fd5b80915050919050565b60008073ffffffffffffffffffffffffffffffffffffffff168273ffffffffffffffffffffffffffffffffffffffff161415610bca576040517f08c379a0000000000000000000000000000000000000000000000000000000008152600401610bc190612f31565b60405180910390fd5b600460008373ffffffffffffffffffffffffffffffffffffffff1673ffffffffffffffffffffffffffffffffffffffff168152602001908152602001600020549050919050565b610c1961117c565b73ffffffffffffffffffffffffffffffffffffffff16610c37610d30565b73ffffffffffffffffffffffffffffffffffffffff1614610c8d576040517f08c379a0000000000000000000000000000000000000000000000000000000008152600401610c8490612fb1565b60405180910390fd5b610c97600061193f565b565b6000610ca5600d611757565b905090565b610cb261117c565b73ffffffffffffffffffffffffffffffffffffffff16610cd0610d30565b73ffffffffffffffffffffffffffffffffffffffff1614610d26576040517f08c379a0000000000000000000000000000000000000000000000000000000008152600401610d1d90612fb1565b60405180910390fd5b610d2e611a03565b565b60008060009054906101000a900473ffffffffffffffffffffffffffffffffffffffff16905090565b606060028054610d6890613296565b80601f0160208091040260200160405190810160405280929190818152602001828054610d9490613296565b8015610de15780601f10610db657610100808354040283529160200191610de1565b820191906000526020600020905b815481529060010190602001808311610dc457829003601f168201915b5050505050905090565b610dfd610df661117c565b8383611aa6565b5050565b610e12610e0c61117c565b8361123d565b610e51576040517f08c379a0000000000000000000000000000000000000000000000000000000008152600401610e4890613011565b60405180910390fd5b610e5d84848484611c13565b50505050565b6060610e6e82611110565b610ead576040517f08c379a0000000000000000000000000000000000000000000000000000000008152600401610ea490612fd1565b60405180910390fd5b6000610eb7611c6f565b90506000815111610ed75760405180602001604052806000815250610f02565b80610ee184611d01565b604051602001610ef2929190612ce9565b6040516020818303038152906040525b915050919050565b6000600660008473ffffffffffffffffffffffffffffffffffffffff1673ffffffffffffffffffffffffffffffffffffffff16815260200190815260200160002060008373ffffffffffffffffffffffffffffffffffffffff1673ffffffffffffffffffffffffffffffffffffffff16815260200190815260200160002060009054906101000a900460ff16905092915050565b610fa661117c565b73ffffffffffffffffffffffffffffffffffffffff16610fc4610d30565b73ffffffffffffffffffffffffffffffffffffffff161461101a576040517f08c379a000000000000000000000000000000000000000000000000000000000815260040161101190612fb1565b60405180910390fd5b600073ffffffffffffffffffffffffffffffffffffffff168173ffffffffffffffffffffffffffffffffffffffff16141561108a576040517f08c379a000000000000000000000000000000000000000000000000000000000815260040161108190612e31565b60405180910390fd5b6110938161193f565b50565b60007f780e9d63000000000000000000000000000000000000000000000000000000007bffffffffffffffffffffffffffffffffffffffffffffffffffffffff1916827bffffffffffffffffffffffffffffffffffffffffffffffffffffffff19161480611109575061110882611e62565b5b9050919050565b60008073ffffffffffffffffffffffffffffffffffffffff166003600084815260200190815260200160002060009054906101000a900473ffffffffffffffffffffffffffffffffffffffff1673ffffffffffffffffffffffffffffffffffffffff1614159050919050565b600033905090565b816005600083815260200190815260200160002060006101000a81548173ffffffffffffffffffffffffffffffffffffffff021916908373ffffffffffffffffffffffffffffffffffffffff160217905550808273ffffffffffffffffffffffffffffffffffffffff166111f783610aa7565b73ffffffffffffffffffffffffffffffffffffffff167f8c5be1e5ebec7d5bd14f71427d1e84f3dd0314c0f7b2291e5b200ac8c7c3b92560405160405180910390a45050565b600061124882611110565b611287576040517f08c379a000000000000000000000000000000000000000000000000000000000815260040161127e90612ed1565b60405180910390fd5b600061129283610aa7565b90508073ffffffffffffffffffffffffffffffffffffffff168473ffffffffffffffffffffffffffffffffffffffff1614806112d457506112d38185610f0a565b5b8061131257508373ffffffffffffffffffffffffffffffffffffffff166112fa846105ad565b73ffffffffffffffffffffffffffffffffffffffff16145b91505092915050565b8273ffffffffffffffffffffffffffffffffffffffff1661133b82610aa7565b73ffffffffffffffffffffffffffffffffffffffff1614611391576040517f08c379a000000000000000000000000000000000000000000000000000000000815260040161138890612e51565b60405180910390fd5b600073ffffffffffffffffffffffffffffffffffffffff168273ffffffffffffffffffffffffffffffffffffffff161415611401576040517f08c379a00000000000000000000000000000000000000000000000000000000081526004016113f890612e91565b60405180910390fd5b61140c838383611f44565b611417600082611184565b6001600460008573ffffffffffffffffffffffffffffffffffffffff1673ffffffffffffffffffffffffffffffffffffffff168152602001908152602001600020600082825461146791906131ac565b925050819055506001600460008473ffffffffffffffffffffffffffffffffffffffff1673ffffffffffffffffffffffffffffffffffffffff16815260200190815260200160002060008282546114be9190613125565b92505081905550816003600083815260200190815260200160002060006101000a81548173ffffffffffffffffffffffffffffffffffffffff021916908373ffffffffffffffffffffffffffffffffffffffff160217905550808273ffffffffffffffffffffffffffffffffffffffff168473ffffffffffffffffffffffffffffffffffffffff167fddf252ad1be2c89b69c2b068fc378daa952ba7f163c4a11628f55a4df523b3ef60405160405180910390a461157d838383611f54565b505050565b61158a610a90565b6115c9576040517f08c379a00000000000000000000000000000000000000000000000000000000081526004016115c090612dd1565b60405180910390fd5b6000600b60006101000a81548160ff0219169083151502179055507f5db9ee0a495bf2e6ff9c91a7834c1ba4fdd244a5e8aa4e537bd38aeae4b073aa61160d61117c565b60405161161a9190612d0d565b60405180910390a1565b600061162f82610aa7565b905061163d81600084611f44565b611648600083611184565b6001600460008373ffffffffffffffffffffffffffffffffffffffff1673ffffffffffffffffffffffffffffffffffffffff168152602001908152602001600020600082825461169891906131ac565b925050819055506003600083815260200190815260200160002060006101000a81549073ffffffffffffffffffffffffffffffffffffffff021916905581600073ffffffffffffffffffffffffffffffffffffffff168273ffffffffffffffffffffffffffffffffffffffff167fddf252ad1be2c89b69c2b068fc378daa952ba7f163c4a11628f55a4df523b3ef60405160405180910390a461173d81600084611f54565b5050565b6001816000016000828254019250508190555050565b600081600001549050919050565b600073ffffffffffffffffffffffffffffffffffffffff168273ffffffffffffffffffffffffffffffffffffffff1614156117d5576040517f08c379a00000000000000000000000000000000000000000000000000000000081526004016117cc90612f71565b60405180910390fd5b6117de81611110565b1561181e576040517f08c379a000000000000000000000000000000000000000000000000000000000815260040161181590612e71565b60405180910390fd5b61182a60008383611f44565b6001600460008473ffffffffffffffffffffffffffffffffffffffff1673ffffffffffffffffffffffffffffffffffffffff168152602001908152602001600020600082825461187a9190613125565b92505081905550816003600083815260200190815260200160002060006101000a81548173ffffffffffffffffffffffffffffffffffffffff021916908373ffffffffffffffffffffffffffffffffffffffff160217905550808273ffffffffffffffffffffffffffffffffffffffff16600073ffffffffffffffffffffffffffffffffffffffff167fddf252ad1be2c89b69c2b068fc378daa952ba7f163c4a11628f55a4df523b3ef60405160405180910390a461193b60008383611f54565b5050565b60008060009054906101000a900473ffffffffffffffffffffffffffffffffffffffff169050816000806101000a81548173ffffffffffffffffffffffffffffffffffffffff021916908373ffffffffffffffffffffffffffffffffffffffff1602179055508173ffffffffffffffffffffffffffffffffffffffff168173ffffffffffffffffffffffffffffffffffffffff167f8be0079c531659141344cd1fd0a4f28419497f9722a3daafe3b4186f6b6457e060405160405180910390a35050565b611a0b610a90565b15611a4b576040517f08c379a0000000000000000000000000000000000000000000000000000000008152600401611a4290612ef1565b60405180910390fd5b6001600b60006101000a81548160ff0219169083151502179055507f62e78cea01bee320cd4e420270b5ea74000d11b0c9f74754ebdbfc544b05a258611a8f61117c565b604051611a9c9190612d0d565b60405180910390a1565b8173ffffffffffffffffffffffffffffffffffffffff168373ffffffffffffffffffffffffffffffffffffffff161415611b15576040517f08c379a0000000000000000000000000000000000000000000000000000000008152600401611b0c90612eb1565b60405180910390fd5b80600660008573ffffffffffffffffffffffffffffffffffffffff1673ffffffffffffffffffffffffffffffffffffffff16815260200190815260200160002060008473ffffffffffffffffffffffffffffffffffffffff1673ffffffffffffffffffffffffffffffffffffffff16815260200190815260200160002060006101000a81548160ff0219169083151502179055508173ffffffffffffffffffffffffffffffffffffffff168373ffffffffffffffffffffffffffffffffffffffff167f17307eab39ab6107e8899845ad3d59bd9653f200f220920489ca2b5937696c3183604051611c069190612d74565b60405180910390a3505050565b611c1e84848461131b565b611c2a84848484611f59565b611c69576040517f08c379a0000000000000000000000000000000000000000000000000000000008152600401611c6090612e11565b60405180910390fd5b50505050565b6060600c8054611c7e90613296565b80601f0160208091040260200160405190810160405280929190818152602001828054611caa90613296565b8015611cf75780601f10611ccc57610100808354040283529160200191611cf7565b820191906000526020600020905b815481529060010190602001808311611cda57829003601f168201915b5050505050905090565b60606000821415611d49576040518060400160405280600181526020017f30000000000000000000000000000000000000000000000000000000000000008152509050611e5d565b600082905060005b60008214611d7b578080611d64906132f9565b915050600a82611d74919061317b565b9150611d51565b60008167ffffffffffffffff811115611d9757611d9661345e565b5b6040519080825280601f01601f191660200182016040528015611dc95781602001600182028036833780820191505090505b5090505b60008514611e5657600182611de291906131ac565b9150600a85611df19190613342565b6030611dfd9190613125565b60f81b818381518110611e1357611e1261342f565b5b60200101907effffffffffffffffffffffffffffffffffffffffffffffffffffffffffffff1916908160001a905350600a85611e4f919061317b565b9450611dcd565b8093505050505b919050565b60007f80ac58cd000000000000000000000000000000000000000000000000000000007bffffffffffffffffffffffffffffffffffffffffffffffffffffffff1916827bffffffffffffffffffffffffffffffffffffffffffffffffffffffff19161480611f2d57507f5b5e139f000000000000000000000000000000000000000000000000000000007bffffffffffffffffffffffffffffffffffffffffffffffffffffffff1916827bffffffffffffffffffffffffffffffffffffffffffffffffffffffff1916145b80611f3d5750611f3c826120f0565b5b9050919050565b611f4f83838361215a565b505050565b505050565b6000611f7a8473ffffffffffffffffffffffffffffffffffffffff166121b2565b156120e3578373ffffffffffffffffffffffffffffffffffffffff1663150b7a02611fa361117c565b8786866040518563ffffffff1660e01b8152600401611fc59493929190612d28565b602060405180830381600087803b158015611fdf57600080fd5b505af192505050801561201057506040513d601f19601f8201168201806040525081019061200d91906128bd565b60015b612093573d8060008114612040576040519150601f19603f3d011682016040523d82523d6000602084013e612045565b606091505b5060008151141561208b576040517f08c379a000000000000000000000000000000000000000000000000000000000815260040161208290612e11565b60405180910390fd5b805181602001fd5b63150b7a0260e01b7bffffffffffffffffffffffffffffffffffffffffffffffffffffffff1916817bffffffffffffffffffffffffffffffffffffffffffffffffffffffff1916149150506120e8565b600190505b949350505050565b60007f01ffc9a7000000000000000000000000000000000000000000000000000000007bffffffffffffffffffffffffffffffffffffffffffffffffffffffff1916827bffffffffffffffffffffffffffffffffffffffffffffffffffffffff1916149050919050565b6121658383836121d5565b61216d610a90565b156121ad576040517f08c379a00000000000000000000000000000000000000000000000000000000081526004016121a490612db1565b60405180910390fd5b505050565b6000808273ffffffffffffffffffffffffffffffffffffffff163b119050919050565b6121e08383836122e9565b600073ffffffffffffffffffffffffffffffffffffffff168373ffffffffffffffffffffffffffffffffffffffff1614156122235761221e816122ee565b612262565b8173ffffffffffffffffffffffffffffffffffffffff168373ffffffffffffffffffffffffffffffffffffffff1614612261576122608382612337565b5b5b600073ffffffffffffffffffffffffffffffffffffffff168273ffffffffffffffffffffffffffffffffffffffff1614156122a5576122a0816124a4565b6122e4565b8273ffffffffffffffffffffffffffffffffffffffff168273ffffffffffffffffffffffffffffffffffffffff16146122e3576122e28282612575565b5b5b505050565b505050565b600980549050600a600083815260200190815260200160002081905550600981908060018154018082558091505060019003906000526020600020016000909190919091505550565b6000600161234484610b59565b61234e91906131ac565b9050600060086000848152602001908152602001600020549050818114612433576000600760008673ffffffffffffffffffffffffffffffffffffffff1673ffffffffffffffffffffffffffffffffffffffff168152602001908152602001600020600084815260200190815260200160002054905080600760008773ffffffffffffffffffffffffffffffffffffffff1673ffffffffffffffffffffffffffffffffffffffff168152602001908152602001600020600084815260200190815260200160002081905550816008600083815260200190815260200160002081905550505b6008600084815260200190815260200160002060009055600760008573ffffffffffffffffffffffffffffffffffffffff1673ffffffffffffffffffffffffffffffffffffffff16815260200190815260200160002060008381526020019081526020016000206000905550505050565b600060016009805490506124b891906131ac565b90506000600a60008481526020019081526020016000205490506000600983815481106124e8576124e761342f565b5b90600052602060002001549050806009838154811061250a5761250961342f565b5b906000526020600020018190555081600a600083815260200190815260200160002081905550600a600085815260200190815260200160002060009055600980548061255957612558613400565b5b6001900381819060005260206000200160009055905550505050565b600061258083610b59565b905081600760008573ffffffffffffffffffffffffffffffffffffffff1673ffffffffffffffffffffffffffffffffffffffff168152602001908152602001600020600083815260200190815260200160002081905550806008600084815260200190815260200160002081905550505050565b6000612607612602846130b1565b61308c565b90508281526020810184848401111561262357612622613492565b5b61262e848285613254565b509392505050565b60008135905061264581613a98565b92915050565b60008135905061265a81613aaf565b92915050565b60008135905061266f81613ac6565b92915050565b60008151905061268481613ac6565b92915050565b600082601f83011261269f5761269e61348d565b5b81356126af8482602086016125f4565b91505092915050565b6000813590506126c781613add565b92915050565b6000602082840312156126e3576126e261349c565b5b60006126f184828501612636565b91505092915050565b600080604083850312156127115761271061349c565b5b600061271f85828601612636565b925050602061273085828601612636565b9150509250929050565b6000806000606084860312156127535761275261349c565b5b600061276186828701612636565b935050602061277286828701612636565b9250506040612783868287016126b8565b9150509250925092565b600080600080608085870312156127a7576127a661349c565b5b60006127b587828801612636565b94505060206127c687828801612636565b93505060406127d7878288016126b8565b925050606085013567ffffffffffffffff8111156127f8576127f7613497565b5b6128048782880161268a565b91505092959194509250565b600080604083850312156128275761282661349c565b5b600061283585828601612636565b92505060206128468582860161264b565b9150509250929050565b600080604083850312156128675761286661349c565b5b600061287585828601612636565b9250506020612886858286016126b8565b9150509250929050565b6000602082840312156128a6576128a561349c565b5b60006128b484828501612660565b91505092915050565b6000602082840312156128d3576128d261349c565b5b60006128e184828501612675565b91505092915050565b600060208284031215612900576128ff61349c565b5b600061290e848285016126b8565b91505092915050565b612920816131e0565b82525050565b61292f816131f2565b82525050565b6000612940826130e2565b61294a81856130f8565b935061295a818560208601613263565b612963816134a1565b840191505092915050565b6000612979826130ed565b6129838185613109565b9350612993818560208601613263565b61299c816134a1565b840191505092915050565b60006129b2826130ed565b6129bc818561311a565b93506129cc818560208601613263565b80840191505092915050565b60006129e5602b83613109565b91506129f0826134b2565b604082019050919050565b6000612a08601483613109565b9150612a1382613501565b602082019050919050565b6000612a2b602b83613109565b9150612a368261352a565b604082019050919050565b6000612a4e603283613109565b9150612a5982613579565b604082019050919050565b6000612a71602683613109565b9150612a7c826135c8565b604082019050919050565b6000612a94602583613109565b9150612a9f82613617565b604082019050919050565b6000612ab7601c83613109565b9150612ac282613666565b602082019050919050565b6000612ada602483613109565b9150612ae58261368f565b604082019050919050565b6000612afd601983613109565b9150612b08826136de565b602082019050919050565b6000612b20602c83613109565b9150612b2b82613707565b604082019050919050565b6000612b43601083613109565b9150612b4e82613756565b602082019050919050565b6000612b66603883613109565b9150612b718261377f565b604082019050919050565b6000612b89602a83613109565b9150612b94826137ce565b604082019050919050565b6000612bac602983613109565b9150612bb78261381d565b604082019050919050565b6000612bcf602083613109565b9150612bda8261386c565b602082019050919050565b6000612bf2602c83613109565b9150612bfd82613895565b604082019050919050565b6000612c15602083613109565b9150612c20826138e4565b602082019050919050565b6000612c38602f83613109565b9150612c438261390d565b604082019050919050565b6000612c5b602183613109565b9150612c668261395c565b604082019050919050565b6000612c7e603183613109565b9150612c89826139ab565b604082019050919050565b6000612ca1602c83613109565b9150612cac826139fa565b604082019050919050565b6000612cc4603083613109565b9150612ccf82613a49565b604082019050919050565b612ce38161324a565b82525050565b6000612cf582856129a7565b9150612d0182846129a7565b91508190509392505050565b6000602082019050612d226000830184612917565b92915050565b6000608082019050612d3d6000830187612917565b612d4a6020830186612917565b612d576040830185612cda565b8181036060830152612d698184612935565b905095945050505050565b6000602082019050612d896000830184612926565b92915050565b60006020820190508181036000830152612da9818461296e565b905092915050565b60006020820190508181036000830152612dca816129d8565b9050919050565b60006020820190508181036000830152612dea816129fb565b9050919050565b60006020820190508181036000830152612e0a81612a1e565b9050919050565b60006020820190508181036000830152612e2a81612a41565b9050919050565b60006020820190508181036000830152612e4a81612a64565b9050919050565b60006020820190508181036000830152612e6a81612a87565b9050919050565b60006020820190508181036000830152612e8a81612aaa565b9050919050565b60006020820190508181036000830152612eaa81612acd565b9050919050565b60006020820190508181036000830152612eca81612af0565b9050919050565b60006020820190508181036000830152612eea81612b13565b9050919050565b60006020820190508181036000830152612f0a81612b36565b9050919050565b60006020820190508181036000830152612f2a81612b59565b9050919050565b60006020820190508181036000830152612f4a81612b7c565b9050919050565b60006020820190508181036000830152612f6a81612b9f565b9050919050565b60006020820190508181036000830152612f8a81612bc2565b9050919050565b60006020820190508181036000830152612faa81612be5565b9050919050565b60006020820190508181036000830152612fca81612c08565b9050919050565b60006020820190508181036000830152612fea81612c2b565b9050919050565b6000602082019050818103600083015261300a81612c4e565b9050919050565b6000602082019050818103600083015261302a81612c71565b9050919050565b6000602082019050818103600083015261304a81612c94565b9050919050565b6000602082019050818103600083015261306a81612cb7565b9050919050565b60006020820190506130866000830184612cda565b92915050565b60006130966130a7565b90506130a282826132c8565b919050565b6000604051905090565b600067ffffffffffffffff8211156130cc576130cb61345e565b5b6130d5826134a1565b9050602081019050919050565b600081519050919050565b600081519050919050565b600082825260208201905092915050565b600082825260208201905092915050565b600081905092915050565b60006131308261324a565b915061313b8361324a565b9250827fffffffffffffffffffffffffffffffffffffffffffffffffffffffffffffffff038211156131705761316f613373565b5b828201905092915050565b60006131868261324a565b91506131918361324a565b9250826131a1576131a06133a2565b5b828204905092915050565b60006131b78261324a565b91506131c28361324a565b9250828210156131d5576131d4613373565b5b828203905092915050565b60006131eb8261322a565b9050919050565b60008115159050919050565b60007fffffffff0000000000000000000000000000000000000000000000000000000082169050919050565b600073ffffffffffffffffffffffffffffffffffffffff82169050919050565b6000819050919050565b82818337600083830152505050565b60005b83811015613281578082015181840152602081019050613266565b83811115613290576000848401525b50505050565b600060028204905060018216806132ae57607f821691505b602082108114156132c2576132c16133d1565b5b50919050565b6132d1826134a1565b810181811067ffffffffffffffff821117156132f0576132ef61345e565b5b80604052505050565b60006133048261324a565b91507fffffffffffffffffffffffffffffffffffffffffffffffffffffffffffffffff82141561333757613336613373565b5b600182019050919050565b600061334d8261324a565b91506133588361324a565b925082613368576133676133a2565b5b828206905092915050565b7f4e487b7100000000000000000000000000000000000000000000000000000000600052601160045260246000fd5b7f4e487b7100000000000000000000000000000000000000000000000000000000600052601260045260246000fd5b7f4e487b7100000000000000000000000000000000000000000000000000000000600052602260045260246000fd5b7f4e487b7100000000000000000000000000000000000000000000000000000000600052603160045260246000fd5b7f4e487b7100000000000000000000000000000000000000000000000000000000600052603260045260246000fd5b7f4e487b7100000000000000000000000000000000000000000000000000000000600052604160045260246000fd5b600080fd5b600080fd5b600080fd5b600080fd5b6000601f19601f8301169050919050565b7f4552433732315061757361626c653a20746f6b656e207472616e73666572207760008201527f68696c6520706175736564000000000000000000000000000000000000000000602082015250565b7f5061757361626c653a206e6f7420706175736564000000000000000000000000600082015250565b7f455243373231456e756d657261626c653a206f776e657220696e646578206f7560008201527f74206f6620626f756e6473000000000000000000000000000000000000000000602082015250565b7f4552433732313a207472616e7366657220746f206e6f6e20455243373231526560008201527f63656976657220696d706c656d656e7465720000000000000000000000000000602082015250565b7f4f776e61626c653a206e6577206f776e657220697320746865207a65726f206160008201527f6464726573730000000000000000000000000000000000000000000000000000602082015250565b7f4552433732313a207472616e736665722066726f6d20696e636f72726563742060008201527f6f776e6572000000000000000000000000000000000000000000000000000000602082015250565b7f4552433732313a20746f6b656e20616c7265616479206d696e74656400000000600082015250565b7f4552433732313a207472616e7366657220746f20746865207a65726f2061646460008201527f7265737300000000000000000000000000000000000000000000000000000000602082015250565b7f4552433732313a20617070726f766520746f2063616c6c657200000000000000600082015250565b7f4552433732313a206f70657261746f7220717565727920666f72206e6f6e657860008201527f697374656e7420746f6b656e0000000000000000000000000000000000000000602082015250565b7f5061757361626c653a2070617573656400000000000000000000000000000000600082015250565b7f4552433732313a20617070726f76652063616c6c6572206973206e6f74206f7760008201527f6e6572206e6f7220617070726f76656420666f7220616c6c0000000000000000602082015250565b7f4552433732313a2062616c616e636520717565727920666f7220746865207a6560008201527f726f206164647265737300000000000000000000000000000000000000000000602082015250565b7f4552433732313a206f776e657220717565727920666f72206e6f6e657869737460008201527f656e7420746f6b656e0000000000000000000000000000000000000000000000602082015250565b7f4552433732313a206d696e7420746f20746865207a65726f2061646472657373600082015250565b7f4552433732313a20617070726f76656420717565727920666f72206e6f6e657860008201527f697374656e7420746f6b656e0000000000000000000000000000000000000000602082015250565b7f4f776e61626c653a2063616c6c6572206973206e6f7420746865206f776e6572600082015250565b7f4552433732314d657461646174613a2055524920717565727920666f72206e6f60008201527f6e6578697374656e7420746f6b656e0000000000000000000000000000000000602082015250565b7f4552433732313a20617070726f76616c20746f2063757272656e74206f776e6560008201527f7200000000000000000000000000000000000000000000000000000000000000602082015250565b7f4552433732313a207472616e736665722063616c6c6572206973206e6f74206f60008201527f776e6572206e6f7220617070726f766564000000000000000000000000000000602082015250565b7f455243373231456e756d657261626c653a20676c6f62616c20696e646578206f60008201527f7574206f6620626f756e64730000000000000000000000000000000000000000602082015250565b7f4552433732314275726e61626c653a2063616c6c6572206973206e6f74206f7760008201527f6e6572206e6f7220617070726f76656400000000000000000000000000000000602082015250565b613aa1816131e0565b8114613aac57600080fd5b50565b613ab8816131f2565b8114613ac357600080fd5b50565b613acf816131fe565b8114613ada57600080fd5b50565b613ae68161324a565b8114613af157600080fd5b5056fea2646970667358221220809302d708e1647573f3a0502f7d88d86099cffee6e7e0a1cff113dce46d0ab964736f6c63430008070033",
  "immutableReferences": {},
  "source": "// SPDX-License-Identifier: MIT\r\npragma solidity ^0.8.7;\r\n\r\nimport '@openzeppelin/contracts/token/ERC721/ERC721.sol';\r\nimport '@openzeppelin/contracts/token/ERC721/extensions/ERC721Enumerable.sol';\r\nimport '@openzeppelin/contracts/token/ERC721/extensions/ERC721Burnable.sol';\r\nimport '@openzeppelin/contracts/token/ERC721/extensions/ERC721Pausable.sol';\r\nimport '@openzeppelin/contracts/access/Ownable.sol';\r\nimport '@openzeppelin/contracts/utils/Context.sol';\r\nimport '@openzeppelin/contracts/utils/Counters.sol';\r\nimport '@openzeppelin/contracts/utils/structs/EnumerableSet.sol';\r\n\r\ncontract LixiLotus_NFT is Context, Ownable, ERC721Enumerable, ERC721Pausable, ERC721Burnable {\r\n  using Counters for Counters.Counter;\r\n  using EnumerableSet for EnumerableSet.AddressSet;\r\n\r\n  string private _baseTokenURI;\r\n\r\n  /** @notice Token ID counter declared */\r\n  Counters.Counter private _tokenIds;\r\n\r\n  /** @notice Mapping to track number of mints per address */\r\n  mapping(address => uint256) public userMintCount;\r\n\r\n  constructor() ERC721('Lixi Lotus Love', 'LLL') {\r\n    _baseTokenURI = 'https://lixilotus.test/';\r\n  }\r\n\r\n  function _baseURI() internal view virtual override returns (string memory) {\r\n    return _baseTokenURI;\r\n  }\r\n\r\n  function mintNFT(address receiver) public virtual onlyOwner returns (uint256) {\r\n    _tokenIds.increment();\r\n\r\n    uint256 newItemId = _tokenIds.current();\r\n    _mint(receiver, newItemId);\r\n\r\n    return newItemId;\r\n  }\r\n\r\n  /**\r\n   * @dev Pauses all token transfers and mint\r\n   */\r\n  function pause() external onlyOwner {\r\n    _pause();\r\n  }\r\n\r\n  /**\r\n   * @dev Unpauses all token transfers and mint.\r\n   */\r\n  function unpause() external onlyOwner {\r\n    _unpause();\r\n  }\r\n\r\n  function totalMintCount() external view returns (uint256) {\r\n    return _tokenIds.current();\r\n  }\r\n\r\n  function _beforeTokenTransfer(\r\n    address from,\r\n    address to,\r\n    uint256 tokenId\r\n  ) internal virtual override(ERC721, ERC721Enumerable, ERC721Pausable) {\r\n    super._beforeTokenTransfer(from, to, tokenId);\r\n  }\r\n\r\n  /**\r\n   * @dev See {IERC165-supportsInterface}.\r\n   */\r\n  function supportsInterface(bytes4 interfaceId) public view virtual override(ERC721, ERC721Enumerable) returns (bool) {\r\n    return super.supportsInterface(interfaceId);\r\n  }\r\n}\r\n",
  "sourcePath": "F:\\projects\\crypto\\lixi\\lixi-contracts\\contracts\\LixiLotus_NFT.sol",
  "compiler": {
    "name": "solc",
    "version": "0.8.7+commit.e28d00a7.Emscripten.clang"
  },
  "schemaVersion": "3.4.4",
  "updatedAt": "2022-05-19T02:51:03.550Z",
  "networkType": "ethereum",
  "devdoc": {
    "kind": "dev",
    "methods": {
      "approve(address,uint256)": {
        "details": "See {IERC721-approve}."
      },
      "balanceOf(address)": {
        "details": "See {IERC721-balanceOf}."
      },
      "burn(uint256)": {
        "details": "Burns `tokenId`. See {ERC721-_burn}. Requirements: - The caller must own `tokenId` or be an approved operator."
      },
      "getApproved(uint256)": {
        "details": "See {IERC721-getApproved}."
      },
      "isApprovedForAll(address,address)": {
        "details": "See {IERC721-isApprovedForAll}."
      },
      "name()": {
        "details": "See {IERC721Metadata-name}."
      },
      "owner()": {
        "details": "Returns the address of the current owner."
      },
      "ownerOf(uint256)": {
        "details": "See {IERC721-ownerOf}."
      },
      "pause()": {
        "details": "Pauses all token transfers and mint"
      },
      "paused()": {
        "details": "Returns true if the contract is paused, and false otherwise."
      },
      "renounceOwnership()": {
        "details": "Leaves the contract without owner. It will not be possible to call `onlyOwner` functions anymore. Can only be called by the current owner. NOTE: Renouncing ownership will leave the contract without an owner, thereby removing any functionality that is only available to the owner."
      },
      "safeTransferFrom(address,address,uint256)": {
        "details": "See {IERC721-safeTransferFrom}."
      },
      "safeTransferFrom(address,address,uint256,bytes)": {
        "details": "See {IERC721-safeTransferFrom}."
      },
      "setApprovalForAll(address,bool)": {
        "details": "See {IERC721-setApprovalForAll}."
      },
      "supportsInterface(bytes4)": {
        "details": "See {IERC165-supportsInterface}."
      },
      "symbol()": {
        "details": "See {IERC721Metadata-symbol}."
      },
      "tokenByIndex(uint256)": {
        "details": "See {IERC721Enumerable-tokenByIndex}."
      },
      "tokenOfOwnerByIndex(address,uint256)": {
        "details": "See {IERC721Enumerable-tokenOfOwnerByIndex}."
      },
      "tokenURI(uint256)": {
        "details": "See {IERC721Metadata-tokenURI}."
      },
      "totalSupply()": {
        "details": "See {IERC721Enumerable-totalSupply}."
      },
      "transferFrom(address,address,uint256)": {
        "details": "See {IERC721-transferFrom}."
      },
      "transferOwnership(address)": {
        "details": "Transfers ownership of the contract to a new account (`newOwner`). Can only be called by the current owner."
      },
      "unpause()": {
        "details": "Unpauses all token transfers and mint."
      }
    },
    "version": 1
  },
  "userdoc": {
    "kind": "user",
    "methods": {
      "userMintCount(address)": {
        "notice": "Mapping to track number of mints per address "
      }
    },
    "version": 1
  }
}